:020000040800F2
:10000000600500204D370008E9360008EB3600088F
:10001000ED360008EF360008F13600080000000059
:10002000000000000000000000000000F33600089F
:10003000F536000800000000F7360008F936000821
:10004000693700086D3700087137000875370008F8
:10005000793700087D3700088137000885370008A8
:10006000893700088D370008913700089537000858
:10007000993700089D370008A1370008A537000808
:10008000A9370008AD370008B1370008B5370008B8
:10009000B9370008BD370008C1370008C537000868
:1000A000C9370008CD370008D1370008D537000818
:1000B000D9370008DD370008E1370008E5370008C8
:1000C000E9370008ED370008F1370008F537000878
:1000D000F9370008FD370008013800080538000826
:1000E000093800080D3800081138000815380008D4
:1000F000193800081D380008213800082538000884
:10010000293800082D380008313800083538000833
:10011000393800083D3800084138000845380008E3
:10012000FD360008493800084D38000851380008ED
:100130005538000800000000000000005938000891
:100140005D38000861380008653800086938000823
:100150006D380008713800087538000879380008D3
:100160007D38000881380008853800088938000883
:100170008D380008913800080000000000000000E1
:1001800095380008993800082DE9F14FB2B099462A
:10019000924600230691CDE900333C9A0F930DF16E
:1001A0004A0114914A7011E0329E57462C4617F8C6
:1001B000011B0698B0470028069000F026810F9892
:1001C000401C641E0F90F2D13296AA449AF80000A7
:1001D000252808D10021002209910A920B910C9246
:1001E0000D910E920FE06A464FF0FF31504601F03C
:1001F0007FF8050002D10F9800F066BED4D5012526
:10020000E3E741F001011AF8010F2028F9D0232873
:100210000CD02B2804D02D2805D0302809D00BE095
:1002200041F00201EFE741F00401ECE741F0080181
:10023000E9E741F01001E6E72A280FD1D9F80020BC
:1002400052F8040BC9F800200028119003D5404251
:10025000119041F004010AF1010A14E01192DFF853
:10026000EC3B0AE01198984205DA00EB800402EBBF
:100270004402303A11920AF1010A9AF80020A2F1E0
:1002800030000A28EED39AF800002E2803D04FF051
:10029000FF32109229E01AF8010F2A2809D1D9F863
:1002A000000050F8042BC9F8000010920AF1010A6E
:1002B0001BE02D280CBF0AF1010A00200022109239
:1002C000DFF8882B0BE040B9109B934205DA03EB73
:1002D000830504EB4504303C10940AF1010A9AF8B6
:1002E0000040A4F130030A2BEDD3ADF848100FF60F
:1002F00060309AF8001001F005F808B11AF8010B07
:100300008DF84A009DF84A00682805D19AF8000047
:1003100068280CD1622106E06C2804BF9AF800001E
:100320006C2804D171218DF84A100AF1010A1FA826
:1003300008901AF801BBBBF125012DD01C3900F043
:100340006181091F022940F25D810E392AD0491FBF
:1003500000F0B284093900F05581891E00F048850B
:10036000491E00F0F484491E022940F24B81091F06
:1003700000F0ED84491F00F0BA80491E00F09C8413
:10038000491E65D0C91E21D0891E00F09584C91E62
:1003900000F0928400F04BBD25238DF87C300121C4
:1003A00009912AE06C208DF84A00D9F8000050F835
:1003B000042BC9F80000002A43D11499487800287A
:1003C0003DD04FF0FF340FF6902012E09DF84A0028
:1003D0006C28EAD0D9F8000050F8044BC9F80000A6
:1003E0000794D4B91499487898B14FF0FF340FF6B8
:1003F000842000F0A1FF201A07D132981FAA04A977
:1004000000F065FD00287FF5E1AE4FF0FF3000F011
:100410005BBD0FF67C200790EFE7109D002D04D503
:10042000204600F0A9FF044607E02A46204600F0D7
:10043000ADFF002814BF041B2C460A94DDE70FF61D
:100440005422329804A900F0C8FD0028D5D5DCE775
:10045000D9F8001051F8040BC9F8001020F000047E
:10046000002121F0FF351FABCDE904450793DDE9FD
:10047000042308993C2413B90AB9109898B102F0E2
:100480000F053035641EEEB23A2EA8BF273512098B
:1004900042EA03721B090D5508BF002A03D00798D2
:1004A0000D19A842EBD308190790C4F13C0210982B
:1004B0000A92824209DABDF84810821A4FF6EF70AC
:1004C00001400C92ADF8481097E7002895D59DF8AB
:1004D000480000F0140010288FD1119B09990C9846
:1004E0005B1A1B1A9A1A002A87DD0C9285E7149969
:1004F000487820B14FF0FF340FF69C1079E79DF853
:100500004A00622862D0682819D06A2840D06C2836
:1005100006D071284DD074282DD07A281ED064E0E2
:10052000D9F8001051F8040BC9F8001020B94FF0A9
:10053000FF340FF67C105CE70F9901605DE7D9F896
:10054000001051F8040BC9F8001020B94FF0FF3427
:100550000FF65C104DE70F9901804EE7D9F80010B7
:1005600051F8040BC9F800100028E5D14FF0FF3412
:100570000FF63C103DE7D9F8001051F8040BC9F80C
:1005800000100028D8D14FF0FF340FF6241030E7C8
:10059000D9F8001051F8040BC9F8001020B94FF039
:1005A000FF340FF60C1024E70F9AD317C0E900238D
:1005B00023E7D9F8001051F8040BC9F800100028FF
:1005C000F2D14FF0FF340FF6E80012E7D9F800102F
:1005D00051F8040BC9F8001020B94FF0FF340FF6A2
:1005E000D00006E70F99017007E7D9F8001051F81D
:1005F000040BC9F8001000289ED14FF0FF340FF60D
:10060000B000F6E6D9F80020D21D22F00702C9F8A2
:100610000020D2E900010832C9F80020CDE9040128
:10062000C80F02D009982D210AE0BDF848008107C3
:1006300002D509982B2103E0C00705D50998202190
:100640001FAA1154401C09901FA809994BF02002C1
:100650004318DDE90401CDE92E01612A079315ACA9
:100660000BD01098002802D50620109005E001BF9D
:100670004BF02000672801211091DDE904014800BA
:100680004015401C0A4611D109030FD0ABF161059A
:1006900003201A2D0A9002D20FF6A03101E00FF6C6
:1006A000A0310322184600F09DFEA6E650B91203C1
:1006B00008D1ABF1610503201A2D0A9016D30FF66D
:1006C0008831EEE7DDE90401CDE93001DDE93023D1
:1006D00023F00047B7F5801F22F000060DD200225C
:1006E000002F08BF002E029203D116E00FF65431FE
:1006F000D7E702AA00F0CEFE0FE0DFF8F00ADFF83D
:10070000F01A00EB17500290DDE930234FF0FF3074
:100710001940DFF8E07A10403943CDE904014BF08D
:10072000200061280DD1079830210170821CBBF197
:10073000610F07920CBF7821582141700998801CE5
:100740000990DDE9040120F0000231F0004308BF08
:10075000002A02D10026002571E14BF02008B8F1F3
:10076000610F40F0BE801098002847BF21210391FF
:10077000401C0390039FDDE92E017F1C0022002313
:10078000DDE9044500F0BEFE02998DF8542038BF23
:1007900085F00045091F002F02910DF155065DDD22
:1007A000DFF8541ACDE9302140F2FF732E93204632
:1007B00029460022002300F0BDFE4FD24800400D24
:1007C00000F11C0315D0002B13DD2E9883420ADBA9
:1007D000DDE9300121F0004005F000420243DDE98F
:1007E0003001114611E06FF31E5141EA03512046DA
:1007F0000BE024F0000035F0004108BF00280FBFD7
:1008000029461C22294600F0ADFE04460D4600F0A4
:1008100047FFFF1F002F804609DD00F05FFF024603
:100820000B462046294600F06BFF04460D46F01D9E
:100830000721B8F1000F0CDD491E5EBF08F00F0262
:1008400000F8012D4FEA2818F3D502E0002200F845
:10085000012D491EFAD5C61D002FA8DC0DF155004B
:10086000361A03988642D8BF304600280DF1550449
:1008700030D4B04206DA0DF155010A5C082AA8BF4F
:100880000F2100DA0021024615AB134400E0401EA0
:1008900013F80159521E8D42F9D00F2904D10DF1E0
:1008A00055018B5C5B1C8B54002A04D50299091DF1
:1008B00015AC401C0291411E0CD46218ABF13A06F3
:1008C00013783033DDB23A2DA8BFF318491E02F871
:1008D0000139F5D51099002940F1AF80421E1092E0
:1008E000ABE00299DFF8142947F29750414391FB9E
:1008F000F2F2DDE92E45029225F00045D2F1070221
:1009000004DD2046294600F04DFC0BE05242002059
:10091000DFF8EC1800F046FC02460B46204629465C
:1009200000F060FF0446B8F1660F109806BF029F02
:100930000A3706273F18142FC8BF142730208DF818
:1009400054000D460020DFF8BC18CDE92E010DF152
:100950005506002F33DD2046294601F067F8014691
:100960000A4606F1080304200A26B2FBF6F606EB57
:10097000860EA2EB4E02303203F8012C0A22B6FB9F
:10098000F2F202EB820EA6EB4E063036401E03F862
:10099000026DE9D1083F002F03F10806D9DD0846B2
:1009A00001F058F802460B462046294600F0A8FE02
:1009B000DDE92E2301F05CF804460D46CBE70DF18E
:1009C0005500361A0DF1550404E00298401E761EBB
:1009D0000290641C20783028F7D0B8F1660F02D15D
:1009E0000299491C04E0B8F1650F0CBF01210021F8
:1009F000109808188642B8BF701E00281DD4B04257
:100A000004DA215C3429C8BF392100DC30210246D8
:100A1000631E9D1800E0401E15F80169521E8E42AB
:100A2000F9D0392902D1A15C491CA154002A04D56E
:100A30000299491C1C46401C02910646029D00F08A
:100A40005BFC406A0778DDF8408030B2002802DCA9
:100A500001260FF2F8744BF02000662808BF6D1CC9
:100A600016D0672846D128B210F1040F48DB404564
:100A700046DA9DF848006D1C010703D430B24045AA
:100A8000B8BF804628B2B8EB000848BF4FF0000856
:100A90000FFA85FB07980A99BBF1000F00F3B280AB
:100AA0004A1C0A9230234354B8F1000F03DC9DF82E
:100AB0004800010704D50A98411C0A9107990F5470
:100AC00018EB0B0FB8BFC8F100052DB268420D90AE
:100AD000A84432B29045B8BF4646079B0A9836B242
:100AE0000B9632462146184400F07CFCA8EB060029
:100AF0000E90CBE0BBF1610F17D14FF0700B19E0F6
:100B000030B2404504DA9DF848100A0758BF8046C5
:100B1000B8F1010848BF4FF00008BBF1670F14BFE0
:100B20004FF0450B4FF0650B04E0BBF1410F08BFE0
:100B30004FF0500B0A98411C0A91B8F1000F079929
:100B400014F8012B0A5403DC9DF8480001071AD55C
:100B50000A98411C0A91B8F1000F07990F5412DD51
:100B6000761E30B2804507980A9BB8BF464632B21F
:100B70002146184400F036FC0A9936B271180A91E1
:100B8000A8EB06000D9007980A9908442AB2002A9B
:100B900080F800B003D42B224270811C04E02D2188
:100BA00041701546811C6D4200202EAA0A2409E0DE
:100BB0002B4693FBF4F505EB8506A3EB460302F801
:100BC000013B401C2DB2002DF2DC012806DC4BF06D
:100BD0002002652A04BF302201F8012B00282EAA2A
:100BE00008D1302001F8010B06E0401E135C3033C1
:100BF00001F8013B0028F8DC079A0A981044091A0A
:100C00000B9143E0084431B22AB2914219DA32B270
:100C1000214600F0E7FB0A9936B27118ABEB0606E5
:100C2000B8F1000F0A910D9603DC9DF84800020709
:100C300004D5079847540B99491C0B91CDF838807F
:100C400024E0214600F0CEFB0A98761B5844B8F108
:100C5000000F0A9003DC9DF848100A0703D5411CD9
:100C60000A9107990F5430B2804507980A9BB8BF84
:100C7000464632B204EB0B01184400F0B3FB0A986D
:100C800036B230180A90A8EB06000D909DF8480087
:100C900000F0140010287FF4B0AB099A0A990D985F
:100CA0008A180B9982180E988A1882181198824215
:100CB000BFF6A3AB821A18E49DF84A00622808D058
:100CC00068280ED06A2814D06C281FD0712810D044
:100CD0001CE0D9F8001051F8040BC9F80010C0B29C
:100CE0001AE0D9F8001051F8040BC9F8001080B2CE
:100CF00012E0D9F80020D21D22F00702C9F8002026
:100D0000D2E900010832C9F8002006E0D9F8001045
:100D100051F8040BC9F800100021CDE904019DF839
:100D2000480001075AD5DDE90423002B08BF002A3B
:100D300054D04BF02000782850D109981FA93022B8
:100D40000A54401C431C099301F800B046E09DF88A
:100D50004A00622808D068280ED06A2814D06C286F
:100D60001FD0712810D01CE0D9F8001051F8040BE6
:100D7000C9F8001040B21AE0D9F8001051F8040B7D
:100D8000C9F8001000B212E0D9F80020D21D22F0FC
:100D90000702C9F80020D2E900010832C9F8002092
:100DA00006E0D9F8001051F8040BC9F80010C1177B
:100DB000CDE90401002902D509982D210AE0BDF8EA
:100DC0004800810702D509982B2103E0C00705D50B
:100DD000099820211FAA1154401C09901FA80999A5
:100DE0000144079104A8594600F057F9FFF705BBE5
:100DF0009DF84A006C280BD001210991D9F8000018
:100E000050F8041BC9F800008DF87C10FFF7F5BA04
:100E1000D9F8000050F8041BC9F8000015914FF0F4
:100E2000FF3210920021169115AAFFF70ABB252167
:100E30000122BBF1000F8DF87C1009923FF4DDAA6E
:100E40008DF87DB00221FFF7ABBA0000CBCCCC0C03
:100E5000686A6C747A4C00007072696E74665F73B5
:100E60003A2062616420256C7320617267756D653C
:100E70006E7400007072696E74665F733A2062610E
:100E80006420257320617267756D656E74000000C3
:100E900000000000000000007072696E74665F73ED
:100EA0003A20256E20646973616C6C6F776564000D
:100EB0007072696E74663A2062616420256E2061EA
:100EC0007267756D656E740033B0BDE8F08F2DE903
:100ED000FC410F46064690467A6B7869396ABC6ACF
:100EE000121AB869521A796A121AF869521A121A41
:100EF00097F83800141B41070FD42020002C8DF8E0
:100F000000000ADD254601236A463946304600F0D6
:100F10007DF900285DD16D1EF5D17B6942463946C9
:100F2000304600F073F9002853D130208DF80000CE
:100F30003D6A002D09DD01236A463946304600F03E
:100F400065F9002845D16D1EF5D1BB69FA683946AF
:100F5000304600F05BF900283BD130208DF80000CE
:100F60007D6A002D08DD01236A463946304600F0CF
:100F70004DF970BB6D1EF6D1F868B969FB6942186E
:100F80003946304600F042F918BB30208DF8000099
:100F9000BD6A002D08DD01236A463946304600F05F
:100FA00035F9B0B96D1EF6D197F8380041070DD567
:100FB0002020002C8DF8000008DD01236A46394608
:100FC000304600F023F920B9641EF6D10020BDE8B8
:100FD000F6814FF0FF30BDE8F6812DE9F8470D4668
:100FE000A3B02F6B002F8246904648BF6FF000479A
:100FF00000F00FFE696B401801AA0021C2E9001140
:10100000812828BF4FF0FF3044D289461EE0A74216
:1010100030DB6869201881280BD30021696303AA9B
:1010200029465046FFF753FF5FEA000922D400200B
:10103000686103AB6E6922466946981900F0D2F9DF
:10104000A6196E6158F8040BA0B13F1B002F11DDEB
:10105000D8F8001001AA684600F04CF90446002CAC
:1010600005D4D8F800000028D1D1641ECFD54FF0A8
:10107000FF390EE0B9F1000F504604D103AA29460A
:10108000FFF725FF8146B9F1000F02D1002068610A
:101090006863484624B0BDE8F0872DE9FC43074665
:1010A0006F293E6908BF082405D041F02000782848
:1010B00014BF0A2410243C25D7E90023642918BF53
:1010C00069299046994605D1002B03D5D8F100082F
:1010D00069EB4909B9F1000F08BFB8F1000F0CD155
:1010E000386B50B9082C39D197F83800010735D53D
:1010F00030203B2586F83B0030E08DF8001040465C
:1011000049462246E31700F089FD3032D0B26D1E09
:101110003A28019504DB9DF80000A0F151018A18DE
:101120007255404649462246E31700F077FD804657
:101130005FEA010908BFB8F1000F03D0F868711920
:101140008842DCD3082C09D197F83800010705D56F
:10115000705D302802D06D1E30207055C5F13C0204
:10116000BA617119F960386B824208DA821A3A6200
:101170004FF6EF70398F01403987BDE8F3830028BF
:101180000ED597F8380000F01400102808D17B6BBA
:101190007969386A5B1A1B1A9A1A002AC8BF3A6220
:1011A000BDE8F3832DE9D04306460F4614464FF0C1
:1011B0000008DFF8549012E0E00707D542464B469E
:1011C0003046394600F054FC06460F464046494634
:1011D00042464B4600F04CFC641080468946002C89
:1011E000EAD130463946BDE8D083000002FCFFFF5B
:1011F000FFFF0F800000E03F0000F07FA0860100AD
:101200000000F03F84D7974100002440F8B5054620
:101210000E4617461C4600205CB117F8011BB0684B
:10122000A847B06030B1F06A401CF0620020641E34
:10123000F3D1F2BD4FF0FF30F2BD00006E616E00E1
:101240004E414E00696E6600494E4600300030B493
:10125000002513E050F8042BD30744BFA9F1010384
:101260009A18091F042942F8045BFAD213468C0726
:1012700044BF15809B1CC90748BF1D7050F8041B54
:101280000029E7D130BC70471C48704770B45368E0
:10129000D41801E05B1C491E042B08DA00291FBF8B
:1012A000057804F8015B10F8016B002EF2D1536051
:1012B00070BC704738B514461D4661B1FFF7E6FFB4
:1012C00061686A6B204690476FF00102811A02D074
:1012D000491E01D001E003E005E00021616032BD5C
:1012E0006FF0010032BD4FF0FF3032BDDA6B1047B6
:1012F000024BDFE7014BF9E7014870474800002047
:1013000010000020C9B202788A421AB11CBF10F83E
:10131000012FF9E718BF00207047B1F5807F02D395
:101320004FF0FF3070470170012070470078401E79
:101330008041C043C00F704780B500B906A0054981
:101340000B681BB122220021984701E000F0E9FC64
:10135000222002BD5C010020636F6E7374726169AC
:101360006E742068616E646C65723A2062616420FC
:101370006D6573736167650000F1010310F8011B6F
:1013800011B110F8011BFBE7C01A7047C9B28307FF
:1013900006D0521E22D310F8013B9942F7D11FE02C
:1013A000083A13D302F1040241EA012141EA014162
:1013B00050F8043B121F21BF4B40A3F1013C2CEA23
:1013C000030C1CF0803FF3D0C9B2001F083210F8A4
:1013D000013B521E28BF91EA030FF8D818BF012025
:1013E000401E704762B38B0708D0521E11F8013BB4
:1013F00000F8013B00F024808B07F6D1830740F012
:10140000208000BF103A07D330B4B1E83810103A4A
:10141000A0E83810F9D230BC530724BFB1E8081057
:10142000A0E8081044BF51F8043B40F8043BD20741
:1014300024BF31F8022B20F8022B44BF0B78037035
:101440007047121F17D35B0009D151F8043B20F8F5
:10145000023B1B0C121F20F8023BF6D20BE051F8A6
:10146000043B00F8013B1B0A20F8023B1B0C121F37
:1014700000F8013BF3D238BF121D521E24BF11F8F1
:10148000013B00F8013BF8D870470268531C036029
:101490001170704710B5144600F002F8226010BDBC
:1014A000C1F30A5343B14A0012F5001F28D2A3F238
:1014B000FE32A1EB0251704750EA410C20D001F0FE
:1014C000004C31EA0C01B1FA81F204BFB0FA80F3AA
:1014D000D2180B3AB2F120032CBF00FA03F191406D
:1014E00041EA0C013EBFC2F1200C20FA0CF3194373
:1014F0009040524240F2FD33D21A01EB0351704743
:10150000002270474FF4001C1CEB410F94BF1CEBF2
:10151000430F09E041EA030C50EA4C0C52EA0C0C70
:1015200003D2994208BF9042704714BF8B42824257
:1015300070472E004FF4001C1CEB410F94BF1CEBB6
:10154000430F09E041EA030C50EA4C0C52EA0C0C40
:1015500003D28B4208BF8242704714BF9942904227
:1015600070474300124254D440F2FF7C1CEA1153EE
:101570000FD0634531D09B1863453CBF01EB02514E
:10158000704701F0004141EA0C510020AFF30080A8
:10159000704750EA410320D001F0004C91EA0C0161
:1015A0001CD0B1FA81F30B3B9A420DD9D21A994063
:1015B00051EA0C01C3F1200C20FA0CFC6144984064
:1015C000531C40F2FF7CD7E7914041EA0C01C2F185
:1015D000200C20FA0CF3194390407047B0FA80F3C6
:1015E0001533202BE0D3202AEED3203A203B9A4219
:1015F00009D9D21A00FA03F141EA0C010020531C68
:1016000040F2FF7CB8E700FA02F141EA0C01002049
:101610007047524240F2FF7C1CEA11530DD06345E3
:10162000DBD0B2EB030C3CBFA1EB025170470CF1D5
:10163000010221EA035141F4801150EA410CCCD05F
:1016400001F0004C352A27DC30B481EA0C01B2F1FC
:10165000200309DAC2F12003044601FA03F5D04061
:101660002843D1409C400CE0C3F12002450020FA01
:1016700003F418BF44F0010421FA03F091400C4335
:10168000002174F1004550F1000051EB0C0124429F
:1016900030BC7FF47BAF70476146002076E70000E6
:1016A000C1F30A5340F2FE329B1A14DDD3F120033A
:1016B0004FEAE17208DDC90241EA505141F00040B1
:1016C000D84080185040704703F2E13010B1D24347
:1016D00082F000407047002070470000C11768B1D9
:1016E0004840401AB0FA80F29040D21CC907C2F5B7
:1016F000846241EA025202EBD021400570470000AB
:1017000070B44FF0004591EA030F40F10D836B4038
:10171000841A71EB030603D2001BB1411219734105
:101720004FF4001C1CEB410F34BF7CEB430442E040
:101730000C0DA4EB1356352E4FDC45EAC323DB0A10
:1017400045EAC121C912B6F120050DDD63FA05F69F
:10175000EB4086EA0305124218BF45F00105C018A8
:1017600051F100010CD213E062FA06F5F240554047
:10177000F3415A40B340F3405A408018594107D3CF
:1017800049085FEA30005FEA350528BF45F00105EA
:1017900001F58011420875F1004250F1000041EB63
:1017A00004514E0016F5001F70BC38BF7047002072
:1017B000090D090570471CEB410F10D252EA430690
:1017C0000BD0BCEB410F05D80C0DAB43661E342E7D
:1017D000B6DD02E0AB438018594170BC704770BC65
:1017E00070470000F0B540F2FF7581EA030C0CF081
:1017F000004C15EA11541DBF15EA1357AC42AF4215
:10180000E5E0BC41C1F31301C3F31303801A99410E
:1018100043F4801304D2641E4000494180185941AA
:10182000C90241EA5051B1FBF3F603FB1611A2FBCA
:101830000675D7EBC020A94102D2761E8018594107
:10184000C90241EA5051B1FBF3FE03FB1E11A2FB9A
:101850000E75D7EBC020A94103D2AEF1010E80185E
:101860005941890241EA9051760546EA8E2EB1FB34
:10187000F3F603FB1611A2FB0675D7EB8020A941F6
:1018800002D2761E80185941C90241EA50514EEAEF
:10189000060EB1FBF3F603FB1611A2FB0675D7EBA0
:1018A000C020A94102D2761E80185941C90241EADE
:1018B0005051B1FBF3F703FB1711A2FB0735D3EB34
:1018C000C020A94167F100070CBF004247F00107A3
:1018D00066F3D5274FEA1E31B80814F5806412DD8F
:1018E000BD0775F1004250EB0E5051EB045111F55C
:1018F000801F5CBF41EA0C01F0BD4CF07F6141F0FC
:10190000E0410020F0BDBD076D0840EA0E5041F4F3
:101910008011D4F10104B4F120060ADAC4F12006E2
:101920000200E04001FA06F3E1401843B2401543DB
:101930000EE0342C13DCC6F1200445EA40056D08A6
:1019400020FA06F2154321FA06F0A1400D430021CA
:1019500075F1004250F1000051EB0C01F0BD002088
:101960005FEA0C01F0BDCFB992185B41B3FA83F77F
:1019700004BFB2FA82F6BF190B3FB7F120062FBFA2
:1019800002FA06F3BB40C7F1200622FA06F638BF7A
:101990003343BA401CB1E419641E33E77F4231F08F
:1019A0000041B1FA81F404BFB0FA80F6A4190B3CEF
:1019B000B4F120062FBF00FA06F1A140C4F12006C1
:1019C00020FA06F638BF3143A0403C1B1AE7AC4270
:1019D0001ABF05EA1357AF4212E050EA41061CBF96
:1019E00052EA4306BFE750EA4107304661461CBF52
:1019F00041EA0551F0BD52EA430C08BFC143F0BDB6
:101A000000204FF4001616EB410F98BF16EB430F62
:101A100008BF16EB410F24BFC14305E016EB430F8F
:101A20000CBF61464CEA0551F0BD0000400D49185D
:101A300040EA81200CD2490DA1F58061491C40F09B
:101A4000004005DBD1F11F0154BFC840C0177047EB
:101A500000207047014648B1B0FA80F18840C91CA7
:101A6000C1F58461090501EBD021400570470000F4
:101A7000B0B581EA030C0CF0004C40F2FF7515EA9A
:101A800011541DBF15EA1357AC42AF4239E0E419B7
:101A900023EA455343F48013C90241F0004141EA6F
:101AA000505EC7021100A7FB020200284FF00000A1
:101AB000EEFB01204FF00001E3FB072118BF42F0CD
:101AC0000102401800214941E3FB0E01A4F58064A6
:101AD0000F0302D252004041494154F101046CDD30
:101AE000470872F1004250F1000051EB0451A1F59A
:101AF00080115CBF41EA0C01B0BD4CEA05510020E9
:101B0000B0BD05EA1357AC4214BFAF4241E050EA02
:101B1000410E1CBF52EA430E02E061460020B0BDF8
:101B200024423C441BD15FEA070EF6D0090302BFF2
:101B300001460020AEF1140EB1FA81F7AEEB0704B6
:101B400001FA07FE0C37C7F1200100FA07F7C84079
:101B50004EEA000E23EA455343F48013A2E733F024
:101B60000043B3FA83F704BFB2FA82FE77440B3F17
:101B7000E41BB7F1200E2FBF02FA0EF3BB40C7F1F2
:101B8000200E22FA0EFE38BF43EA0E03BA40641C50
:101B900082E750EA410E14BF52EA430E6FF0000193
:101BA0004FF4001717EB430F8ABF194617EB410F8D
:101BB000B5E74CEA05510020B0BDD4F10104B4F101
:101BC00020070FDAC4F12007520828BF42F00102B3
:101BD00010FA07F501FA07F7E1BF2A43E04038435E
:101BE000E1400FE0352C98DCC7F1200452EA4002B6
:101BF00020FA07F218BF42F0010231FA07F0A140C3
:101C00000A43002172F1004250F1000051EB0C0137
:101C1000B0BD80B5FFF738FB006C02BDD3BBD9B1B6
:101C2000B2F5803F5BD2022A1ED98C46B1FBF2F19D
:101C300002FB11C31B0443EA1043B3FBF2FC02FB9B
:101C40001C3380B240EA0343B3FBF2F002FB1032D4
:101C500040EA0C4000237047022A05D98446B0FBB5
:101C6000F2F002FB10C270474AB105D100F0010248
:101C700049085FEA3000704700220023704700F0F7
:101C800009B90B000200002100207047F7D30022A1
:101C900000237047904271EB030CF2D370B5B1FA98
:101CA00081F4B3FA83F52C1BA340C4F1200532FA6A
:101CB00005F63343A2405FF00046E64002E05B08D1
:101CC0005FEA3202841A71EB030524BF20462946DD
:101CD0007641F4D302000B003000002170BD70B5D6
:101CE000B1FA81F4B2FA82F5C4F120046419B4F1B6
:101CF0002006DAD3B2405FF00044F440002502E051
:101D000052085FEA3303C61A71EB020E24BF304655
:101D1000714664416D41F3D302000B00200029009D
:101D200070BD012000F0B8B8841A71EB030604D22C
:101D30006E40001BB141121973414FF4001C1CEBA3
:101D4000410F34BF7CEB430683E00C0DA4EB13562C
:101D5000362E00F37C80012E45EAC32341DC43EAA2
:101D6000525312BFD20292025B08240545EAC121F8
:101D700041EA5051D2EBC020994125D407D1B0FAA5
:101D800080F610FA06F162D00020203608E0B1FAA1
:101D900081F6B140C6F1200220FA02F21143B040B0
:101DA0004FEAF474B4EB465434F001064FEA74047D
:101DB0000AD8D6F50016760D04F00044F04061FA1A
:101DC00006F25040F1404840C00A40EA415021F03C
:101DD000004128BF5FEA500550F1000044EBD121DB
:101DE00035E0DB0A45EAC121C90AB6F120050EDD5E
:101DF00042EA0242120CC5F1200603FA06F6EB4055
:101E000042EA06056D42984161F100010DE062FA77
:101E100006F5F240554063FA06FC82EA0C02F340F4
:101E20005A406D42904161EB030111F4801F05D1CE
:101E3000641E620502D06D004041494121F48011C9
:101E4000430875F1004350F1000041EB045170BCB0
:101E500070471CEB410F15D223F0004352EA4306B2
:101E60000BD04FEA4C0CBCEB410F04D80C0D661E96
:101E7000342EB7DDEBE7801A994150EA410608BFDE
:101E80000021E4E708BF1CEB430F28BF6FF00001FF
:101E9000DDE700007047000080B5AFF30080024A24
:101EA00011001820ABBEFBE72600020070B5044607
:101EB00000250CB9012070BD04F13006306920B94D
:101EC000204600F069FA756135733069C10600F18A
:101ED00092803069DFF8A01320F4885040F00200AF
:101EE0003061086820F4403008600A686068024386
:101EF0000A602068416821F480714160206841686F
:101F0000226941EA022141602068416821F0407164
:101F1000416021684A68A06802434A60206881687D
:101F200021F40061816021688A68E06802438A6068
:101F30002068A16ADFF844239142816821F0706132
:101F400081600CD021688A68A06A02438A6000F030
:101F50005BF821688A68E06A02438A6001E000F069
:101F600053F82068816821F0020100F049F8227ED0
:101F700041EA4201816094F8200021680028486805
:101F80000FD040F4006048602068416821F460414F
:101F9000416020684168626A521E41EA42314160F4
:101FA00002E020F4006048602068C16A21F47001FA
:101FB000C1622068C16AE269521E41EA0251C162EF
:101FC0002068816821F4007100F01AF8327841EA43
:101FD000422100F015F821F4806100F011F86269E7
:101FE00041EA822181607561316921F0020141F08D
:101FF0000101316100E0012500203073284670BDE9
:1020000081602068816870472068816821F04051B4
:1020100081607047126802F01F02102A7047016841
:1020200041F0804101607047816841F080418160EA
:102030007047F8B50446002004F13C0300901D7879
:10204000012D01D10220F2BD0120187020688568A1
:10205000EE070DD485688F4E45F0010585608E48EA
:102060000568B5FBF6F606EB4606009600F0FBF8B1
:102070002568A868C60761D55F688448074047F4AB
:1020800080775F606868450505D5586820F4005082
:1020900040F4805058605868C50446BF986820F0E6
:1020A00006000020986000251D70A36B0FF2ED1054
:1020B000D863A36B0FF24D201864A36B0FF24D2071
:1020C000D8646FF02200256828602068436843F0D8
:1020D0008063436013462068856845F48075856099
:1020E0000A46206800F14C01A06B00F026FA206837
:1020F000614A6749136813F01F0F16D188420DD04B
:102100005F49884204D1126812F01F0F16D105E012
:102110005C49884212D1FFF77DFF0FD2816811F030
:10212000405F0BD1FFF780FF08E0884202BF5648AE
:10213000016811F0405F01D1FFF771FF0020F2BD8F
:1021400078B502460020009092F83C30012B01D176
:10215000022072BD012082F83C0007240B68106841
:102160000A2B12D30A3BC56803EB43039C4025EAC4
:102170000404C460C3680D688C68A5F10A0606EB08
:102180004606B4402343C3600FE0056903EB4303F5
:1021900004FA03F325EA0303036103690D688C68FD
:1021A00005EB4505AC40234303611F244B68072B17
:1021B0000CD25B1E456B00F050F84463436B4D68D6
:1021C0000C886E1E00F044F843631BE00D2B0CD20C
:1021D000DB1F056B00F041F80463036B4D680C884E
:1021E000EE1F00F035F803630CE00D3BC56A00F00C
:1021F00034F8C462C36A4D680C88A5F10D0600F07E
:1022000027F8C362224B98421DD10C681A48122C41
:1022100003D1036843F4800303600B68102B18BFDD
:10222000112B10D1036843F40003036008681028E1
:1022300009D11949174C0B68B3FBF4F40A20444345
:10224000009400F010F8002182F83C10002072BDCC
:1022500006EB8606B4402343704703EB83039C40A0
:1022600025EA0404704702E00098401E00900098A0
:102270000028F9D170470000042301400100000F3D
:10228000002101400022014008200140FEF9FFFF2B
:102290000020014040420F000C000020816B0A6CBE
:1022A00012F0500F24D1086C40F4007008640A68E2
:1022B000906810F0405F04BF087E002815D1D06AF6
:1022C00010F4700F02D0906843050ED4506820F0CF
:1022D00020005060086C20F480700864086CC20410
:1022E00003D4086C40F001000864084600F05EBAB0
:1022F0000A6CD30644BF084600F059BA896BCA6C11
:1023000010470000806B00F053BA0000806B402142
:102310000164426C42F00402426400F048BA0000DA
:102320001FB510220021684600F043FA404C414896
:1023300020604FF48031012020612076616000220E
:102340003D48A06201210220E061A26084F82020C3
:10235000E262E26084F8301061612046FFF7A6FD7A
:1023600008B100F0D1FA0020012100900191022271
:10237000029269462046FFF7E3FE08B100F0C4FA76
:10238000012100910222019269462046FFF7D8FE02
:1023900008B100F0B9FA1FBD38B586B00446142262
:1023A000002101A800F005FA2168224881423CD1B1
:1023B00000222248224D0092416941F4807141611E
:1023C000416901F480710091009900920321036832
:1023D00043F001030360006800F0010000900098E2
:1023E000019102910021039101A9164800F09CFA85
:1023F0001548286000216960E9604FF400604FF4DF
:102400008061686129614FF4807000224FF40051AF
:10241000E861AA60A9612A626A62284600F016F89B
:1024200008B100F071FAA563AC6307B030BD0000DD
:10243000F0000020002001400100000F3038024071
:1024400090000020000002401064024070B5044675
:1024500000F05CFB06460CB9012070BD04F13405A8
:10246000002028700221697020680268520852001A
:10247000026022681068C1070AD500F047FB801B84
:102480000628F6D32020286203216970032070BD3E
:102490001368DFF8900261680340A0680B43E168AD
:1024A000034320690B4361690343A0690B43E1695E
:1024B0000343206A0B43616A0343042903D1E16AA1
:1024C000206B01430B43136023685A69606AD2088A
:1024D000042840EAC2020AD1A66AE16A324331B155
:1024E000A06988B9002E18BF022E1FD016D35A61DA
:1024F000204600F043F9A96A3F228A40826000200A
:1025000028620121697070BDB0F5005F0AD1032E09
:10251000EDD8DFE806F00D0B0D03E8E7B1F1C07F61
:10252000E5D105E0022E03D9F61EE0D1C801DED5C3
:10253000402129620120687070BDF8B5044604F19D
:10254000340600253078776A012801D10220F2BDD7
:1025500001203070707801281CD102207070356223
:10256000204600F0FBF8B06A3F2101FA00F0B860A5
:102570002068016841F016010160F06820B1206810
:10258000016841F0080101602068016841F0010123
:10259000016001E0357002252846F2BD2DE9FC41BD
:1025A000044604F1340600205F4900904FF41650B1
:1025B000776A0A683D68B2FBF0F8B06A082100F05B
:1025C000B6F80ED02068026853070AD5026822F0D8
:1025D00004020260B06A8140B960316A41F00101D1
:1025E0003162B06A25FA00F1CA070BD521684A6941
:1025F000110607D5012202FA00F0B860306A40F0F7
:1026000002003062042100F091F808D021680A68C5
:10261000930704D5B860306A40F00400306210219E
:1026200000F084F81BD021680A68130717D5B8603A
:10263000206801684A0307D5006801030BD571695A
:1026400069B1204688470AE00168CA0503D40168D9
:1026500021F008010160F16809B120468847B06A9D
:10266000202100F064F83FD021680A68D3063BD5EA
:10267000B8602068717805291CD1026822F0160222
:10268000026000F058F8F068002804BF7069002864
:1026900001D000F05CF83F22B06A8240BA600021AD
:1026A000317001227270F169002939D02046BDE8ED
:1026B000FC41084701684A0307D5006801030FD4AD
:1026C000316989B1204688470EE00168CA0507D400
:1026D000016821F010010160002030700122727049
:1026E000B16809B120468847306AC8B1306AC1076D
:1026F00010D50520707000F024F80098401C80452B
:10270000009003D320680168CA07F6D40020307017
:1027100001217170B16919B12046BDE8FC4108473B
:10272000BDE8F3813F8010F00C000020B06A01FA90
:1027300000F0054270472068416921F08001416145
:1027400070472068016849084900016070472068A7
:10275000016821F0080101607047000030B504688D
:10276000256825F48025256063608068402802D1B3
:10277000A260E16030BDA160E26030BD30B50168AB
:1027800008A401F0FF02103A1823B2FBF3F2890A01
:102790008902A55CC565042A28BF091D8165806D75
:1027A00030BD000000061016000610167047704776
:1027B000704710B5044610460A460146204600F010
:1027C000ABF9204610BD000070B500F0D9F900F05B
:1027D00046F800F0EFF900F047FAFFF7A1FD00F02E
:1027E0008DFB434C434802222146FFF722FC00BFE9
:1027F0000FF2241545A622883146201D00F0B4FBB7
:102800006088FFF727F900223B4BFFF731F90022E0
:102810003A4BFEF7E7FF02460B46294604F1140047
:1028200000F0A2FB0021002000F081FB201DFEF73C
:10283000A3FDC1B2201D00F089FB0121002000F0A2
:1028400076FB04F11400FEF797FDC1B204F1140009
:1028500000F07CFB40F24D1000F0A6FBCBE780B50A
:1028600092B0302106A800F0B3FB142101A800F0BB
:10287000AFFB002000904FF480332148016841F005
:10288000805101600021006800F0805000900098A5
:102890001C480091026842F48042026001220068F4
:1028A00000F48040009006A80099069202214FF49F
:1028B00080020C910D920421A8220E910F92022108
:1028C000042207931091119200F086FB02210291DD
:1028D000002203920F204FF4A051019004914FF475
:1028E00080520592052101A800F0FEFC13B000BD46
:1028F00038010020F00000200080404000FEAF4082
:1029000040380240007000407047000043445320AC
:102910003A20253464000000564F4C203A202534DC
:102920002E316656000000002DE9F84F0D460026B6
:102930006B496C4A0F23044601202F68B04000EA1F
:102940000708804540F0C1804FEA460C032707FA8C
:102950000CF76FEA070E6F68012F18BF022F03D024
:10296000112F18BF122F12D1A768D5F80C900EEABC
:10297000070709FA0CF949EA0707A760676827EA19
:1029800000006F68C7F30017B74038436060E06825
:10299000AF680EEA000007FA0CF73843E060B000B9
:1029A0006F68022F18BF122F12D1F70804EB8707A8
:1029B00000F01C09D7F820A003FA09FB2AEA0B0A49
:1029C000D5F810B00BFA09F949EA0A09C7F82090BE
:1029D00027680EEA070E2F7907F0030707FA0CF7AE
:1029E00047EA0E0727606F68FF006ED50027009743
:1029F0004FEA960C176847F48047176000F00C0008
:102A0000176807F48047009703FA00FE009F364FCF
:102A100057F82C7027EA0E0E344FBC4208BF00272F
:102A200022D0334FBC4208BF01271DD0314FBC42DA
:102A300008BF022718D0304FBC4208BF032713D06D
:102A40002E4FBC4208BF04270ED02D4FBC4208BFFA
:102A5000052709D02B4FBC4208BF062704D02A4FB8
:102A6000BC420CBF0727082707FA00F01E4F40EAB8
:102A70000E0047F82C006FEA08000F6800EA070C08
:102A80006F68FF0348BF48EA0C0CC1F800C04F68EC
:102A900000EA070C6F68BF0348BF48EA0C0CC1F896
:102AA00004C08F6800EA070C6F68FF0248BF48EA5D
:102AB0000C0CC1F808C0CF6800EA070C68688002F7
:102AC00048BF48EA0C0CC1F80CC0761C0F2E7FF6EC
:102AD00033AFBDE8F18F02B909048161704700008E
:102AE000003C0140443802400838014000000240E8
:102AF0000004024000080240000C024000100240A6
:102B00000014024000180240001C024001484068C6
:102B1000704700BF0000002062F30F2262F31F42E3
:102B2000401810F0030308D0C91A1FD3DB0748BFB1
:102B300000F8012D28BF20F8022D130030B41446F0
:102B40001546103928BF20E93C00FAD8490728BFAC
:102B500020E90C0048BF40F8042D890028BF20F868
:102B6000022D48BF00F8012D30BC7047C91818BFAE
:102B700000F8012DCB0728BF00F8012D7047000099
:102B800080B50B48016841F400710160026842F4AD
:102B900080620260016841F480710160032000F0EE
:102BA00070FC002000F0C2FC00F0E0FC002002BD40
:102BB000003C024038B586B01422002101A8FFF77E
:102BC000F8FD00212148224D224C0091026842F07C
:102BD000800202600022016801F0800100910099EA
:102BE0000092036843F001030360016801F00101F2
:102BF000009100990092036843F0040303600168A8
:102C000001F00401009100990092F021036843F063
:102C100002030360006800F002000090009828465C
:102C2000FFF759FF002207212046FFF754FFF0214C
:102C300000F012F82846FFF777FE072100F00CF8A5
:102C40002046FFF771FE07B030BD0000303802406B
:102C5000000802400004024001910122002103917A
:102C60000491029201A9704780B5002000900022D3
:102C70000948016841F4800101600021006800F406
:102C8000800000900098382000F008FCBDE8024069
:102C9000382000F020BC00BF303802403C2000BF8C
:102CA00000BF00BF00BF00BF00BF00BF00BF00BF2C
:102CB00000BF00BF00BF00BF00BF00BF00BF00BF1C
:102CC00000BF00BF00BF00BF00BF00BF00BF00BF0C
:102CD00000BF00BF00BF00BF00BF00BF00BF00BFFC
:102CE00000BF00BF00BF00BF00BF00BF00BF00BFEC
:102CF00000BF00BF00BF00BF00BF00BF00BF00BFDC
:102D000000BF00BF00BF00BF00BF00BF00BF00BFCB
:102D100000BF00BF00BF00BF00BF00BF00BF00BFBB
:102D200000BF00BF00BF00BF00BF00BF00BF00BFAB
:102D300000BF00BF00BF00BF00BF00BF00BF00BF9B
:102D400000BF00BF00BF00BF00BF00BF00BF00BF8B
:102D500000BF00BF00BF00BF00BF00BF00BF00BF7B
:102D600000BF00BF00BF00BF00BF00BF00BF00BF6B
:102D700000BF00BF00BF00BF00BF00BF00BF00BF5B
:102D800000BF00BF00BF00BF00BF00BF00BF00BF4B
:102D900000BF00BF00BF00BF00BF00BF00BF00BF3B
:102DA00000BF00BF00BF00BF00BF00BF00BF00BF2B
:102DB00000BF00BF00BF00BF00BF00BF00BF00BF1B
:102DC00000BF00BF00BF00BF00BF00BF00BF00BF0B
:102DD00000BF00BF00BF00BF00BF00BF00BF00BFFB
:102DE000401E00287FF45BAF704781B0002343F69C
:102DF000E4620093504301E00098401E0090009868
:102E00000028F9D101B0704738B586B00020304CA9
:102E1000304D00900722216841F00201216001231A
:102E2000206800F0020000902846009901920021DD
:102E300003910491029301A9FFF776FD0022072177
:102E400000F059F800200090216841F00201216053
:102E5000F021206800F00200009000981E480191C7
:102E600001A9FFF761FD07B030BD70B50446194DEB
:102E70000022032108E070B50446164D012202210C
:102E800000F039F80022012100F035F800F031F8A7
:102E9000114E00F023F800F026F80120FFF7FEFEA7
:102EA000002200F027F80120FFF7F8FE00F021F8DB
:102EB00000F014F8240100F016F80120FFF7EEFEF0
:102EC000002200F017F8BDE8704002208DE70000F6
:102ED0003038024000040240000802400022F02185
:102EE0003046FFF7F8BD012204F0F0013046FFF74D
:102EF000F2BD012204212846FFF7EDBD80B5FFF7A2
:102F000083FF2820FFF7B1FF0120FFF7AEFF642009
:102F1000FFF76BFF0620FFF7A8FF0C20FFF7A5FFC8
:102F20000220FFF7A2FFBDE8024080209DE70129B3
:102F300005D007D3032904D038BF143002E0403055
:102F400000E0543040F08000C0B28EE770B504005D
:102F50000D4608D0002603E0205CFFF78CFF761CAE
:102F6000F0B2A842F8D370BD0CB430B583B00A46B5
:102F700006A90291044600250194009502AB01A91F
:102F8000084878441E30FDF7FFF8019A15700028B4
:102F90004EBF04460198041B204603B030BC5DF8C8
:102FA0000CFB00BFE7E4FFFF38B50446FFF7AEFDBA
:102FB00014F1010F054602D0044801786418FFF7A8
:102FC000A5FD401BA042FAD331BD00BF0000002088
:102FD000002200F0E7BA00002DE9F843040016D003
:102FE0002078DFF8F462C10713D5B06800F00C0058
:102FF000042807D0B06800F00C0008283DD17068A4
:1030000041023AD53068810303D56068002800F09A
:103010005E812078B14F810719D5B06810F00C0F90
:1030200007D0B06800F00C0008285BD1706841023E
:1030300058D43068810703D5E068012840F0478103
:103040003168206921F0F80141EAC001316021783E
:10305000080779D56069A249002868D001220A6072
:10306000FFF754FD0546706F81076DD4FFF74EFDE5
:10307000401B0228F7D903202CE16068B0F5803F9F
:1030800004D1306840F48030306011E0B0F5A02FFA
:10309000306806D140F480203060316841F48031DE
:1030A00005E020F480303060316821F48021316007
:1030B000606858B1FFF72AFD054630688103A8D43F
:1030C000FFF724FD401B6528F7D3D4E7FFF71EFD6B
:1030D0000546306881039CD5FFF718FD401B652825
:1030E000F7D3C8E7E068A8B101213960FFF70EFD0A
:1030F00005463068810705D4FFF708FD401B02280C
:10310000F7D9B8E73068216920F0F80040EAC1003B
:1031100030609CE73860FFF7F9FC054631688807A6
:1031200095D5FFF7F3FC401B0228F7D9A3E7086009
:10313000FFF7ECFC0546706F810705D5FFF7E6FC4D
:10314000401B0228F7D996E7207841075FD5306CFD
:103150000025C1000AD400950125316C41F0805151
:103160003164306C00F0805000900098DFF874817A
:10317000D8F80000C10513D4D8F8000040F48070DE
:10318000C8F80000FFF7C2FC8146D8F80000C1056E
:1031900006D4FFF7BBFCA0EB09000228F5D96AE7CB
:1031A000A068012805D00528306F06D140F0040042
:1031B0003067306F40F0010005E0400840003067A4
:1031C000306F20F00400306741F28938A06860B1A8
:1031D000FFF79CFC8146306F810713D4FFF796FC04
:1031E000A0EB09004045F6D345E7FFF78FFC814689
:1031F000306F810706D5FFF789FCA0EB0900404539
:10320000F6D338E71DB1306C20F080503064A069EF
:1032100000285ED0B16801F00C0108293AD00228DC
:103220002AD100203866FFF771FC0546306881011D
:1032300005D5FFF76BFC401B0228F7D91BE7E069B7
:10324000216A626A0843A16A490840EA8210491E5D
:1032500040EA0140E16A40EA01607060012038669E
:10326000FFF754FC04463068810132D4FFF74EFC6E
:10327000001B0228F7D9FEE600203866FFF746FC5F
:1032800004463068810124D5FFF740FC001B02286A
:10329000F7D9F0E601281AD07068E26900F48001DD
:1032A000914202BF00F03F01226A91420FD147F6DE
:1032B000C071626A0140914202BF00F44031A26ACB
:1032C000914202BF00F07060E16A884201D00120A3
:1032D00000E00020BDE8F2830038024000004742D1
:1032E000800E4742007000402DE9F04104000F4677
:1032F00054D0404E306800F00F00B84202D200F0C7
:1033000073F84BD120683C4D810712D5400703D597
:10331000A96841F4E051A9602078010703D5A868A5
:1033200040F46040A860A968A06821F0F001014362
:10333000A9602178C80729D56068012802D12968C9
:103340008A0305E0022818BF032803D129688A01EF
:1033500003D423E029688A0720D5A968890840EAB0
:103360008100A860FFF7D2FB8046A868616800F082
:103370000C00B0EB810F09D0FFF7C8FBA0EB0800F1
:1033800041F289318842F0D303202BE0306800F00D
:103390000F00874204D200F027F801D0012021E07D
:1033A0002078410705D5AA68E06822F4E05202437C
:1033B000AA602178080706D5A968206921F4604130
:1033C00041EAC001A96000F01FF8AA680B490C4B44
:1033D000C2F30312895CC84018600A48006800F014
:1033E000A5F80020BDE8F0813770316801F00F01C9
:1033F000B9427047003C0240003802406C36000879
:103400000C0000200800002030B5144C606800F06B
:103410000C00042802D0082802D01DE0104830BD5E
:10342000226820680023410202F03F0204D525688B
:103430000B49C5F3881003E020680A49C0F38810DF
:10344000A1FB0001FEF7EAFB2168C1F30141491C21
:103450004900B0FBF1F030BD024830BD04380240F5
:1034600000127A000024F4000901020002D4294865
:1034700081547047284B02F00F021A4402F8041CD2
:103480007047264B19684FF6FF020002114000F406
:10349000E0600843224908431860704770B51F4B2D
:1034A0001C68C4F302230124C3F10705052D2EBFB8
:1034B0000F2504FA05F56D1E1E1D072E34BF0023CF
:1034C000DB1E2940994004FA03F3BDE870405B1EFF
:1034D0001A401143C8E7010007D4012200F01F0180
:1034E000104B8A40400943F82020704710B5401E19
:1034F000B0F1807F01D3012010BD0B4C60600F2123
:103500004FF0FF30FFF7B0FF0021A16007202060DF
:10351000002010BD00E400E018ED00E00CED00E03C
:103520000000FA0500E100E010E000E038B50D4DC4
:103530000D4B2A7804464FF47A711868B1FBF2F209
:10354000B0FBF2F0FFF7D2FF50B9102C08D20022E6
:1035500021464FF0FF30FFF7A1FFAC60002032BDE5
:10356000012032BD000000200C00002081B00020AE
:10357000009000220A48416841F48041416041685E
:1035800001F48041009100990092036843F0805358
:103590000360006800F080500090009801B0704710
:1035A0004038024000B500BF1300964694461039DB
:1035B00028BFA0E80C50FAD85FEA417C28BF0CC0B5
:1035C00048BF40F8042BC90728BF20F8022B48BF8A
:1035D00000F8012B00BDF0B402461068956813187E
:1035E000506803EB5004C0071CD54D441AE013F893
:1035F000017B05F8017B491EF9D198B113F8011B35
:10360000C6F38106032E08BF13F8016B01EB0621F8
:103610004942801C294405D011F8016B05F8016B63
:10362000401EF9D1A3420ED013F8016B16F003012E
:1036300004BF13F8011BC91C30090F28DBD113F894
:10364000010B0F30D7E7F0BC02F10C00704700000F
:103650000448054A016841F4700101604FF00060C0
:103660001060704788ED00E008ED00E00000000009
:1036700000000000010203040607080910B507490D
:1036800079441831064C7C44163404E00A68081D5D
:10369000114488470146A142F8D110BD2C0000001A
:1036A000480000004EF68851CEF20001086840F450
:1036B00070000860BFF34F8FBFF36F8F4FF0007043
:1036C000E1EE100A7047000087DBFFFFD00000002A
:1036D0009000002000000000FFFEFFFFC00100007E
:1036E0006A000000000000207047FEE7FEE7FEE7EA
:1036F000FEE770477047704700F006B80148FEF7D4
:103700004DBF0000900000200248416802788A18EE
:10371000426070470000002000F00DF8002801D042
:10372000FFF7ACFFAFF300800020AFF30080FFF79E
:103730004BF800F002F80120704700F001B80000DB
:1037400007463846FEF7A8FBFBE700000148804724
:1037500001480047513600085D370008AFF300808C
:10376000FFF7A0FFFFF7D8FFFFF7FEBFFFF7FEBF91
:10377000FFF7FEBFFFF7FEBFFFF7FEBFFFF7FEBF7D
:10378000FFF7FEBFFFF7FEBFFFF7FEBFFFF7FEBF6D
:10379000FFF7FEBFFFF7FEBFFFF7FEBFFFF7FEBF5D
:1037A000FFF7FEBFFFF7FEBFFFF7FEBFFFF7FEBF4D
:1037B000FFF7FEBFFFF7FEBFFFF7FEBFFFF7FEBF3D
:1037C000FFF7FEBFFFF7FEBFFFF7FEBFFFF7FEBF2D
:1037D000FFF7FEBFFFF7FEBFFFF7FEBFFFF7FEBF1D
:1037E000FFF7FEBFFFF7FEBFFFF7FEBFFFF7FEBF0D
:1037F000FFF7FEBFFFF7FEBFFFF7FEBFFFF7FEBFFD
:10380000FFF7FEBFFFF7FEBFFFF7FEBFFFF7FEBFEC
:10381000FFF7FEBFFFF7FEBFFFF7FEBFFFF7FEBFDC
:10382000FFF7FEBFFFF7FEBFFFF7FEBFFFF7FEBFCC
:10383000FFF7FEBFFFF7FEBFFFF7FEBFFFF7FEBFBC
:10384000FFF7FEBFFFF7FEBFFFF7FEBFFFF7FEBFAC
:10385000FFF7FEBFFFF7FEBFFFF7FEBFFFF7FEBF9C
:10386000FFF7FEBFFFF7FEBFFFF7FEBFFFF7FEBF8C
:10387000FFF7FEBFFFF7FEBFFFF7FEBFFFF7FEBF7C
:10388000FFF7FEBFFFF7FEBFFFF7FEBFFFF7FEBF6C
:10389000FFF7FEBFFFF7FEBFFFF7FEBF43010001CA
:1038A000221008F0050724F4009E1600080452FFB9
:1038B00001E3321514100100006214214C1148F389
:1038C0001620000120022D1300082C431B133C215D
:0138D00001F6
:040000050800375D5B
:00000001FF
