:020000040800F2
:10000000C004002075190008FD180008FF1800083A
:100010000119000803190008051900080000000074
:1000200000000000000000000000000007190008A8
:1000300009190008000000000B1900080D1900083C
:10004000991900089D190008A1190008A5190008B0
:10005000A9190008AD190008B1190008B519000860
:10006000B9190008BD190008C1190008C519000810
:10007000C9190008CD190008D1190008D5190008C0
:10008000D9190008DD190008E1190008E519000870
:10009000E9190008ED190008F1190008F519000820
:1000A000F9190008FD190008011A0008051A0008CE
:1000B000091A00080D1A0008111A0008151A00087C
:1000C000191A00081D1A0008211A0008251A00082C
:1000D000291A0008111900082D1A0008311A000801
:1000E000351A0008391A00083D1A0008411A00089C
:1000F000451A0008491A00084D1A0008511A00084C
:10010000551A0008591A00085D1A0008611A0008FB
:10011000651A0008691A00086D1A0008711A0008AB
:10012000751A0008791A00087D1A0008811A00085B
:10013000851A00080000000000000000891A00086D
:100140008D1A0008911A0008951A0008991A0008DB
:100150009D1A0008A11A0008A51A0008A91A00088B
:10016000AD1A0008B11A0008B51A0008B91A00083B
:10017000BD1A0008C11A00080000000000000000BD
:10018000C51A0008C91A000838B5040001D10120B9
:1001900032BD00F045F818B900F03EF800F0D9FA89
:1001A000FFE702206870211D206800F016F9012089
:1001B0006870002032BD03D1416C41F400414164BC
:1001C000816801F00701062903D0016841F00101AF
:1001D0000160002010BD38B5040001D1012032BDFE
:1001E00000F01EF818B900F017F800F0F5FAD8E79B
:1001F00010B500F007F800F00AF81CBFDFF828205F
:100200009042D8E704460122206800F02ABA20680C
:10021000DFF8181088427047002129702046704787
:1002200004F13C056878704700040140000001407B
:1002300070B500F063F801D1022070BD00F06BF8DA
:1002400032B1042A17D0082A28D00C2A39D04AE023
:100250003068294600F00CF93068816941F00801E6
:1002600000F048F821F00401816131688A69286949
:1002700002438A6137E03068294600F025F930688A
:10028000816941F4006100F035F821F4806100F0EB
:1002900031F82A6941EA0221816124E03068294667
:1002A00000F042F93068C16941F0080100F01EF821
:1002B00021F00401C1613168CA6928690243CA6139
:1002C00011E03068294600F05EF93068C16941F4F8
:1002D000006100F00BF821F4806100F007F82A6952
:1002E00041EA0221C16100F010F870BDC1613068BF
:1002F000C16970478161306881697047064606F1BF
:100300003C040D46207801287047012060700021D0
:100310002170002070470120207002216170704719
:1003200038B500F04EF801D1022032BD0120207016
:1003300002226270DFF894022A6893680340936097
:100340000868020018BF10282DD0202818BF3028B8
:1003500029D0402823D0502816D0602818D07028E3
:1003600003D0B0F5005F07D021E000F025F8286841
:10037000816841F0770105E000F01EF82868816887
:1003800041F48041816012E000F012F850210BE04E
:10039000CA684968286800F040F9602104E000F06C
:1003A00007F8402100E00146286800F048F90EE017
:1003B000CA684968286821E1CB684A688968286862
:1003C00045E1054605F13C042078012870470120ED
:1003D000607000212170002032BDF0B57C4C0568B2
:1003E0007C4B7D4E7D4FDFF8F8C1A04218BFB0F1C5
:1003F000804F07D0604518BFB84203D0B04218BF45
:1004000098420DD14A6825F070051543A04218BFE7
:10041000B0F1804F17D060451CBFB842B04212D037
:1004200098421CBF6F4A90420DD06F4EB0421CBF25
:100430006E4A904207D06E4EB0421FBF6D4A904246
:100440006D4EB04203D1CA6825F4407515434A6920
:1004500025F0800515430560A0428D68C5620A68D5
:10046000826212BF98420969016301224261F0BDB4
:10047000F0B5026A564F520852000262066A44689A
:1004800085690B688A6825F0730526F002061D430E
:100490001643504BB84218BF984207D1CA6826F09D
:1004A00008061643B84226F0040601D0984205D14A
:1004B0004B698A6924F440741C4314434460856189
:1004C000496841630662F0BDF0B5026A404E22F011
:1004D00010020262B042056A436884690A6824F423
:1004E000E64444EA02248A6825F0200545EA02151C
:1004F000384A18BF904208D1CF6825F0800545EAF8
:100500000715B04225F0400501D0904206D14E6952
:100510008A6923F44063164343EA86034360846197
:10052000496881630562F0BDF0B5026A22F4807209
:100530000262056A4368C4698E680A6825F400751A
:1005400024F0730445EA06251443214E214AB042A3
:1005500018BF904208D1CF6825F4006545EA072509
:10056000B04225F4806501D0904206D14E698A6977
:1005700023F44053164343EA06134360C4614968B9
:10058000C1630562F0BD70B5026A114E22F480525B
:100590000262B042046A4268C3690D6823F4E6430C
:1005A00043EA05238D6824F4005444EA05341CBF53
:1005B000084DA84204D14D6922F4804242EA8512D6
:1005C0004260C36149680164046270BD8800FFFF36
:1005D0000000014000040140000C00400008004001
:1005E0000004004000400140004401400048014038
:1005F00000180040001C00400020004010B5036AB5
:10060000046A64086400046223F00A03846924F025
:10061000F00444EA021484612EE010B5036A23F06A
:10062000100303628369046A23F4704343EA0233CC
:1006300024F0A004836144EA0114046210BD8268BE
:1006400022F07002114341F007018160704710B53C
:10065000846824F47F442143114341EA03218160EB
:1006600010BD10B501F01F01036A01248C40A343A3
:10067000036202FA01F1036A1943016210BD30B44A
:10068000002513E050F8042BD30744BFA9F1010360
:100690009A18091F042942F8045BFAD213468C0702
:1006A00044BF15809B1CC90748BF1D7050F8041B30
:1006B0000029E7D130BC704718B58DB01022002159
:1006C00009A800F08AF808220021684600F085F8A1
:1006D0001C22002102A800F080F83B4C4FF0804023
:1006E000206000216160A160E1602161A16120467C
:1006F000FFF74AFD08B100F019F94FF48050099056
:1007000009A92046FFF70CFE08B100F00FF92046BA
:10071000FFF761FD08B100F009F900210091019196
:100720002046694600F004F908B100F0FFF86021A6
:100730000291002203920492069202A92046FFF73A
:1007400077FD08B100F0F2F8204600F015F80EB081
:1007500010BD81B00068B0F1804F0BD100211B4863
:100760000091026842F001020260006800F001009E
:100770000090009801B0704710B586B0044614226E
:10078000002101A800F029F82168B1F1804F18D1AB
:100790000020009002220E48016841F00101016032
:1007A0000121006800F001000090009809480191C3
:1007B00002920021039104910121059101A900F009
:1007C000FDF806B010BD00003C000020403802409B
:1007D0003038024000000240704710B50446104611
:1007E0000A460146204600F0D7F9204610BD000019
:1007F00080B500F005FA00F010F800F01BFAFFF7E2
:100800005BFF00F033FA00214048FFF7F1FC0122C2
:100810003F49404800F0BFFAFEE780B592B0302271
:10082000002106A8FFF7D9FF1422002101A8FFF735
:10083000D4FF002000904FF480333748016841F026
:10084000805101600021006800F080500090009805
:1008500032480091026842F480420260012200683E
:1008600000F48040009006A80099069202214FF4FF
:1008700080020C910D920421A8220E910F92022168
:10088000042207931091119200F034FC022102918E
:10089000002203920F204FF4A051019004914FF4D5
:1008A00080520592052101A800F0ACFD13B000BDF7
:1008B00000681B4B984200D0704710B5144C154887
:1008C0000122214600F067FAF0B920781549A0F11D
:1008D0003102082A16D20A68134B520852000A60E5
:1008E00004EB800050F8B82CB3FBF2F0401E430834
:1008F000A36060608861A06808620A6842F0010233
:100900000A6010BD0020086210BD00003C000020FD
:10091000000000207C0000204038024000700040B1
:10092000001001401400004000BD010570470000A8
:1009300070B500F13C031A78012A01D1022070BD84
:1009400001221A7002245C7005686E68AC680A683F
:1009500026F0700616436E6002681148824218BF86
:10096000B2F1804F11D00F4882421CBF0E4DAA42F7
:100970000BD00E4882421CBF0D4DAA4205D00D4837
:1009800082421CBF0C4DAA4204D1486824F0800466
:1009900004439460012159700020187070BD00005C
:1009A000000001400004004000080040000C00402E
:1009B0000004014000400140001800402DE9F84FBC
:1009C0000D46002669496A4A0F23044601202F6814
:1009D000B04000EA0708804540F0C1804FEA460C6D
:1009E000032707FA0CF76FEA070E6F68012F18BF8D
:1009F000022F03D0112F18BF122F12D1A768D5F8DC
:100A00000C900EEA070709FA0CF949EA0707A760F4
:100A1000676827EA00006F68C7F30017B7403843DC
:100A20006060E068AF680EEA000007FA0CF7384330
:100A3000E060B0006F68022F18BF122F12D1F708C4
:100A400004EB870700F01C09D7F820A003FA09FB84
:100A50002AEA0B0AD5F810B00BFA09F949EA0A0993
:100A6000C7F8209027680EEA070E2F7907F00307D2
:100A700007FA0CF747EA0E0727606F68FF006ED58C
:100A8000002700974FEA960C176847F480471760D5
:100A900000F00C00176807F48047009703FA00FE87
:100AA000009F344F57F82C7027EA0E0E324FBC428D
:100AB00008BF002722D0314FBC4208BF01271DD0FC
:100AC0002F4FBC4208BF022718D02E4FBC4208BF90
:100AD000032713D02C4FBC4208BF04270ED02B4F46
:100AE000BC4208BF052709D0294FBC4208BF0627D2
:100AF00004D0284FBC420CBF0727082707FA00F094
:100B00001C4F40EA0E0047F82C006FEA08000F68FF
:100B100000EA070C6F68FF0348BF48EA0C0CC1F8F5
:100B200000C04F6800EA070C6F68BF0348BF48EA7F
:100B30000C0CC1F804C08F6800EA070C6F68FF0254
:100B400048BF48EA0C0CC1F808C0CF6800EA070C9F
:100B50006868800248BF48EA0C0CC1F80CC0761CDB
:100B60000F2E7FF633AFBDE8F18F0000003C01404F
:100B700044380240083801400000024000040240AE
:100B800000080240000C0240001002400014024025
:100B900000180240001C024062F30F2262F31F4261
:100BA000401810F0030308D0C91A1FD3DB0748BF51
:100BB00000F8012D28BF20F8022D130030B4144690
:100BC0001546103928BF20E93C00FAD8490728BF4C
:100BD00020E90C0048BF40F8042D890028BF20F808
:100BE000022D48BF00F8012D30BC7047C91818BF4E
:100BF00000F8012DCB0728BF00F8012D7047000039
:100C000080B50B48016841F400710160026842F44C
:100C100080620260016841F480710160032000F08D
:100C2000D4FC002000F026FD00F044FD002002BDB1
:100C3000003C024081B0002000900B48016841F068
:100C400080010160026802F0800200920022009997
:100C50000092036843F001030360006800F00100A4
:100C60000090009801B070473038024080B52848A5
:100C7000284901604FF4E13200230C214260836077
:100C8000C360036141618361C36100F049F818B139
:100C9000BDE80140FFF74ABE01BD10B586B004466D
:100CA0001422002101A8FFF798FD2168194881420C
:100CB0002CD1002218480092416941F01001416195
:100CC000416901F010010091009900924FF4C06158
:100CD000036843F0010303600222006800F0010092
:100CE000009000980D480191029200210391032287
:100CF00007210591049201A9FFF760FE002200215F
:100D0000252000F06FFC252000F089FC06B010BD06
:100D10007C000020001001403038024000000240FA
:100D200038B5040001D1012032BD00F021F808B926
:100D300000F022F800F012F800F023F8FFE741611C
:100D400000F001F832BD2068C16841F40051C16073
:100D50000020686020216970A970704724206870A5
:100D60002068C16821F40051C160204600F04FB9ED
:100D700004F1380568787047002129702046FFF794
:100D80008CBF2068016921F49041016120684169AC
:100D900021F02A01704710B500F138039C78202C0F
:100DA00022D109B1140001D1012010BD1C78012C01
:100DB0001AD001241C7081628285C285002159608D
:100DC00022229A7019700168CA6842F48072CA605F
:100DD00001684A6942F001024A610068C16841F055
:100DE0002001C160002010BD022010BD416921F02A
:100DF00040014161606B704770B50446206803682C
:100E0000C668456913F00F0206F0200003F02001C8
:100E100007D1002918BF00285BD02046BDE87040EC
:100E2000ACE0EA0702D416F4907F52D0DA0705D579
:100E3000F60503D5E26B42F00102E2635A0705D5DD
:100E4000EE0703D5E26B42F00202E2639A0705D592
:100E5000EE0703D5E26B42F00402E2631A0706D5FF
:100E600008B9EA0703D5E36B43F00803E363E26BD9
:100E7000002A6ED000291EBF0028204600F07EF810
:100E800020684069E16B0A0701D440061BD5204663
:100E900000F060F8206841694A060FD5FFF7A6FF09
:100EA00060B10FF2CD010165606B00F01FFC0028FE
:100EB0004FD0606B016DBDE8704008472046BDE82B
:100EC000704000F025BC204600F022FC0020E063CA
:100ED00070BD18062CD531062AD594F83900212882
:100EE00037D1A068B0F5805F206A0CD101882268F4
:100EF000C1F30801516020690028206A0CBF811CE1
:100F0000411C216204E0411C21622268007850608B
:100F1000E08C401EE08480B2D8B92068C16821F01E
:100F20008001C1602068C16841F04001C16070BDAE
:100F300058060ED571060CD52068C16821F0400115
:100F4000C1602046202184F83910BDE8704000F0CF
:100F5000E0BB70BD0168CA6822F49072CA60016883
:100F60004A69520852004A61202180F83A107047BD
:100F7000806B0021C185C18400F0CABB80B590F8A8
:100F80003A10222941D18168B1F5805F12D10169FF
:100F90000368826A0029596805D1C1F308011180EC
:100FA000826A911C04E001F0FF011180826A511CE9
:100FB00081620FE001690029816A04D14A1C8262C2
:100FC00003685A6805E04A1C826203685A6802F0A6
:100FD0007F020A70C18D491EC18589B299B9016825
:100FE000CA6822F02002CA600168CA6822F48072CE
:100FF000CA6001684A69520852004A61202180F89B
:101000003A10FFF755FC002002BD022002BDD0B50A
:101010000646642732681169F06821F440510143A3
:1010200011611924D3682D48B168034030690B431E
:1010300071690343F0690B430343D3605169B0699D
:1010400021F4407101435161F36925482549B3F505
:10105000004F1FD18A4218BF824202D100F060FACD
:1010600001E000F055FA0246A4FB02017268D30FBA
:10107000520000F04FFB00F037F8FF0032376420D9
:10108000B7FBF0F0420002F4F87202EB011200F03C
:1010900007001DE08A4218BF824202D100F040FAE8
:1010A00001E000F035FA0246A4FB02017268930FDA
:1010B000920000F02FFB00F017F83F013237642058
:1010C000B7FBF0F000F0F00202EB011200F00F00AD
:1010D000316880188860D0BD00000000F369FFFF10
:1010E00000140140001001406421B0FBF1F107FB46
:1010F000110770472DE9F843040016D02078DFF877
:10110000F462C10713D5B06800F00C00042807D0C2
:10111000B06800F00C0008283DD1706841023AD553
:101120003068810303D56068002800F05E81207874
:10113000B14F810719D5B06810F00C0F07D0B06817
:1011400000F00C0008285BD17068410258D4306868
:10115000810703D5E068012840F0478131682069A4
:1011600021F0F80141EAC00131602178080779D502
:101170006069A249002868D001220A6000F04EFB95
:101180000546706F81076DD400F048FB401B0228B4
:10119000F7D903202CE16068B0F5803F04D13068B6
:1011A00040F48030306011E0B0F5A02F306806D1F7
:1011B00040F480203060316841F4803105E020F453
:1011C00080303060316821F480213160606858B12E
:1011D00000F024FB054630688103A8D400F01EFB14
:1011E000401B6528F7D3D4E700F018FB05463068AC
:1011F00081039CD500F012FB401B6528F7D3C8E79C
:10120000E068A8B10121396000F008FB05463068AC
:10121000810705D400F002FB401B0228F7D9B8E78C
:101220003068216920F0F80040EAC10030609CE796
:10123000386000F0F3FA05463168880795D500F06C
:10124000EDFA401B0228F7D9A3E7086000F0E6FAA0
:101250000546706F810705D500F0E0FA401B0228B3
:10126000F7D996E7207841075FD5306C0025C1009B
:101270000AD400950125316C41F080513164306C05
:1012800000F0805000900098DFF87481D8F80000DA
:10129000C10513D4D8F8000040F48070C8F80000ED
:1012A00000F0BCFA8146D8F80000C10506D400F071
:1012B000B5FAA0EB09000228F5D96AE7A068012871
:1012C00005D00528306F06D140F004003067306F3C
:1012D00040F0010005E0400840003067306F20F02A
:1012E0000400306741F28938A06860B100F096FAD6
:1012F0008146306F810713D400F090FAA0EB09000B
:101300004045F6D345E700F089FA8146306F810702
:1013100006D500F083FAA0EB09004045F6D338E784
:101320001DB1306C20F080503064A06900285ED080
:10133000B16801F00C0108293AD002282AD1002016
:10134000386600F06BFA05463068810105D500F07B
:1013500065FA401B0228F7D91BE7E069216A626A37
:101360000843A16A490840EA8210491E40EA014048
:10137000E16A40EA016070600120386600F04EFAD0
:1013800004463068810132D400F048FA001B02287C
:10139000F7D9FEE60020386600F040FA04463068CF
:1013A000810124D500F03AFA001B0228F7D9F0E6B3
:1013B00001281AD07068E26900F48001914202BFEE
:1013C00000F03F01226A91420FD147F6C071626A74
:1013D0000140914202BF00F44031A26A914202BF33
:1013E00000F07060E16A884201D0012000E0002036
:1013F000BDE8F2830038024000004742800E4742B9
:10140000007000402DE9F04104000F4654D0494ED1
:10141000306800F00F00B84202D200F073F84BD1F0
:101420002068454D810712D5400703D5A96841F4CE
:10143000E051A9602078010703D5A86840F4604016
:10144000A860A968A06821F0F0010143A960217893
:10145000C80729D56068012802D129688A0305E0F8
:10146000022818BF032803D129688A0103D423E086
:1014700029688A0720D5A968890840EA8100A86000
:1014800000F0CCF98046A868616800F00C00B0EB71
:10149000810F09D000F0C2F9A0EB080041F28931B8
:1014A0008842F0D303202BE0306800F00F00874221
:1014B00004D200F027F801D0012021E02078410774
:1014C00005D5AA68E06822F4E0520243AA602178B8
:1014D000080706D5A968206921F4604141EAC001E6
:1014E000A96000F035F8AA681449154BC2F303123D
:1014F000895CC84018601348006800F0BBF8002001
:10150000BDE8F0813770316801F00F01B9427047D2
:101510000B480D4A006813680C49C3F3822206E0A9
:101520000748094A006813680849C3F34232895CD6
:10153000C8407047003C0240003802408018000854
:1015400038000020340000200838024090190008BC
:1015500030B5144C606800F00C00042802D0082854
:1015600002D01DE0104830BD2268206800234102EF
:1015700002F03F0204D525680B49C5F3881003E04B
:1015800020680A49C0F38810A1FB000100F0C2F8EE
:101590002168C1F30141491C4900B0FBF1F030BDA5
:1015A000024830BD0438024000127A000024F400E2
:1015B0000901020002D4294881547047284B02F0E7
:1015C0000F021A4402F8041C7047264B19684FF6A4
:1015D000FF020002114000F4E06008432249084382
:1015E0001860704770B51F4B1C68C4F302230124B8
:1015F000C3F10705052D2EBF0F2504FA05F56D1E55
:101600001E1D072E34BF0023DB1E2940994004FA1B
:1016100003F3BDE870405B1E1A401143C8E70100A8
:1016200007D4012200F01F01104B8A40400943F803
:101630002020704710B5401EB0F1807F01D30120FB
:1016400010BD0B4C60600F214FF0FF30FFF7B0FF73
:101650000021A16007202060002010BD00E400E010
:1016600018ED00E00CED00E00000FA0500E100E0FC
:1016700010E000E038B50D4D0D4B2A7804464FF4CC
:101680007A711868B1FBF2F2B0FBF2F0FFF7D2FF0B
:1016900050B9102C08D2002221464FF0FF30FFF73E
:1016A000A1FFAC60002032BD012032BD2C00002023
:1016B0003800002081B00020009000220A484168D4
:1016C00041F480414160416801F4804100910099FA
:1016D0000092036843F080530360006800F080507C
:1016E0000090009801B070474038024090F83510E3
:1016F000022903D08022426501207047052180F82D
:1017000035100068026852085200026000207047DD
:1017100070477047D3BBD9B1B2F5803F5BD2022A84
:101720001ED98C46B1FBF2F102FB11C31B0443EA44
:101730001043B3FBF2FC02FB1C3380B240EA0343CC
:10174000B3FBF2F002FB103240EA0C40002370477A
:10175000022A05D98446B0FBF2F002FB10C27047A2
:101760004AB105D100F0010249085FEA3000704734
:1017700000220023704700F057B80B000200002140
:1017800000207047F7D3002200237047904271EB8E
:10179000030CF2D370B5B1FA81F4B3FA83F52C1BC4
:1017A000A340C4F1200532FA05F63343A2405FF0AE
:1017B0000046E64002E05B085FEA3202841A71EB01
:1017C000030524BF204629467641F4D302000B00CE
:1017D0003000002170BD70B5B1FA81F4B2FA82F523
:1017E000C4F120046419B4F12006DAD3B2405FF0EA
:1017F0000044F440002502E052085FEA3303C61AB1
:1018000071EB020E24BF3046714664416D41F3D343
:1018100002000B002000290070BD00000148406854
:10182000704700BF2C000020704730B50168846805
:101830004218416802EB5103C90703D54C4401E04B
:10184000491C05D19A420AD012F9011B12F8015B1A
:10185000002904F8015BF3D4491EF7D5F2E70C30F8
:1018600030BD00000448054A016841F47001016080
:101870004FF000601060704788ED00E008ED00E078
:101880000000000000000000010203040607080930
:1018900010B5074979441831064C7C44163404E0ED
:1018A0000A68081D114488470146A142F8D110BDBD
:1018B0002C000000480000004EF68851CEF20001D6
:1018C000086840F470000860BFF34F8FBFF36F8F5C
:1018D0004FF00070E1EE100A70470000A3EDFFFF2B
:1018E000800000003C000020000000003FFFFFFFE0
:1018F000DC0100005C000000000000207047FEE7F3
:10190000FEE7FEE7FEE770477047704700F006B855
:101910000148FFF771BA00007C00002002484168CE
:1019200002788A18426070472C00002000F00DF801
:10193000002801D0FFF7ACFFAFF300800020AFF329
:101940000080FEF755FF00F002F80120704700F01C
:1019500001B800000746384600F002F8FBE7000037
:1019600080B5AFF30080024A11001820ABBEFBE740
:10197000260002000148804701480047651800081A
:1019800085190008AFF30080FFF796FFFFF7CEFF41
:101990000000000001020304FFF7FEBFFFF7FEBFD7
:1019A000FFF7FEBFFFF7FEBFFFF7FEBFFFF7FEBF6B
:1019B000FFF7FEBFFFF7FEBFFFF7FEBFFFF7FEBF5B
:1019C000FFF7FEBFFFF7FEBFFFF7FEBFFFF7FEBF4B
:1019D000FFF7FEBFFFF7FEBFFFF7FEBFFFF7FEBF3B
:1019E000FFF7FEBFFFF7FEBFFFF7FEBFFFF7FEBF2B
:1019F000FFF7FEBFFFF7FEBFFFF7FEBFFFF7FEBF1B
:101A0000FFF7FEBFFFF7FEBFFFF7FEBFFFF7FEBF0A
:101A1000FFF7FEBFFFF7FEBFFFF7FEBFFFF7FEBFFA
:101A2000FFF7FEBFFFF7FEBFFFF7FEBFFFF7FEBFEA
:101A3000FFF7FEBFFFF7FEBFFFF7FEBFFFF7FEBFDA
:101A4000FFF7FEBFFFF7FEBFFFF7FEBFFFF7FEBFCA
:101A5000FFF7FEBFFFF7FEBFFFF7FEBFFFF7FEBFBA
:101A6000FFF7FEBFFFF7FEBFFFF7FEBFFFF7FEBFAA
:101A7000FFF7FEBFFFF7FEBFFFF7FEBFFFF7FEBF9A
:101A8000FFF7FEBFFFF7FEBFFFF7FEBFFFF7FEBF8A
:101A9000FFF7FEBFFFF7FEBFFFF7FEBFFFF7FEBF7A
:101AA000FFF7FEBFFFF7FEBFFFF7FEBFFFF7FEBF6A
:101AB000FFF7FEBFFFF7FEBFFFF7FEBFFFF7FEBF5A
:101AC000FFF7FEBFFFF7FEBFFFF7FEBFF400200BDE
:101AD0000200004B02000093020000BA0200000F57
:101AE00003000070030000DB030000160400000187
:0A1AF000F9000010FC000224F400CD
:040000050800198551
:00000001FF
